:400000000080002011000000710B0000710B000008B5044B1A6803F53F5302331A6000F0C7FD00BFFA46004010B5054C237833B9044B13B10448AFF300800123237010BDBB
:400040005085FF1F000000000C270000084B10B51BB108490848AFF300800848036803B910BD074B002BFBD0BDE81040184700BF000000005485FF1F0C270000C880FF1F84
:400080000000000000B583B062B600F07FFE3C2000F05EFA00F012FA00F01EFA012000F07DFA012000F082FA01F04AFA01F05CFA002001F061FA00F001FA01F075FA1E4B7A
:4000C000186001F0A7FA01F061FE1C4B186001F04FFD1B4C02460B461A49204601F0EAFE0021084600F054FA174800F0DFFB012300930A237F221946002000F083FA14216C
:400100000A2000F045FA114800F0DEFB1421662000F03EFA0E4800F0D7FB1421302000F037FA204600F0C2FB00F0D6F94FF4FA7000F09AFDBFE700BF9885FF1F6C85FF1FEE
:400140009C85FF1F1027000018270000302700003827000083B27F2B3CD800293ADB3F2938DC012A03D09AB1022A23D070471A4A0B46002900DACB1DDB1000EBC31001F00E
:400180000701012303FA01F1135C194311547047114A0B46002900DACB1DDB1000EBC31001F00701012303FA01F1135C23EA010111547047084A0B46002900DACB1DDB10DE
:4001C00000EBC31001F00701012303FA01F1135C59401154704700BFCD80FF1FF0B5BDF81440904267D10D46002900DACD1DED1000EBC510444F07441846002B00DAD81DFC
:40020000C01002EBC012404810443A4650E0BA4218D13E4D0D4003D5013D65F007050135EEB2F5186D1AEDB2062D00D90725AD1B01354FF0010E0EFA05F5013D05FA06F6A7
:40024000F6B20EE082420CD1304D1D4003D5013D65F0070501352DB2012606FA05F56E1EF6B2BA4201D0824212D1012C03D034B1022C09D01BE015783543157017E0157823
:4002800025EA0605157012E01578754015700EE0012C03D02CB1022C06D008E0FF25157005E00025157002E01578ED43157080328242ACD9F0BD0B46002900DACB1DDB1004
:4002C00000EBC313104D2B44121A1A4401F00701012000FA01F1CDB212E0012C03D034B1022C09D00BE018782843187007E0187820EA0100187002E0187868401870013336
:400300009342EAD9F0BD00BFCD80FF1F07000080B1F90020154B1B78022B0CD0032B19D0012B21D1B0F900300B80114B1B889A1A013A02807047B0F900200D4B1B889B1AC8
:40034000013B0380B1F900200A4B1B889B1A013B0B80704710B4B0F90040064B1B881B1B013B0B80028010BC704700BFAA85FF1FA885FF1FAC85FF1F10B584B0ADF80E00D4
:40038000ADF80C10ADF80A20ADF80830904203D009B21BB2994271D1394B1B78012B01D0032B1AD1002869DB364BB3F90030984264DA002A62DB9A4260DABDF90C30002BDE
:4003C0005CDB314AB2F90020934257DABDF90830002B53DB9A421ADC50E0BDF90C30002B4CDB2849B1F900108B4247DABDF90830002B43DB994241DD00283FDB224BB3F949
:40040000003098423ADA002A38DB9A4236DA03A90DF10E00FFF77CFF02A90DF10A00FFF777FFBDF90E30BDF90A20934205D1BDF90800BDF90C10884207DBBDF90C00BDF9FA
:40044000081088420DD193420BDDADF80E20ADF80A30BDF90C30BDF80820ADF80C20ADF80830BDF90830BDF90A20BDF90C10BDF90E00BDF818400094FFF7B0FE04B010BDA6
:40048000AA85FF1FAC85FF1FA885FF1FF8B507460E460021084B187800F0F4FD0024FF2504E0385D00F04AFE05460134B442F8DB00F028FE2846F8BD7085FF1F10B5054C7E
:4004C0004FF480620021601C01F0EBFC4023237010BD00BFCC80FF1F00B583B00A4B186800909A889B79ADF804208DF8063007216846FFF7CBFF40F201410448FFF7C6FF5E
:4005000003B05DF804FB00BF3C270000CC80FF1F0A4B18800A4B19800A4B58809980002209490A70DA801A8101229A724FF6FF719981D981054B1A70704700BFA885FF1F31
:40054000AC85FF1F7085FF1FAA85FF1FAE85FF1F30B589B00C4B187040218020FFF7D8FF01AC0A4D55F8080F6968AA68EB680FC42869696903C42B8B23801A2101A8FFF7E2
:4005800085FF09B030BD00BF7085FF1F3C270000014BD880198170477085FF1F08B90120FFE7014B987270477085FF1F014B9881D88170477085FF1F10B582B0ADF80600C2
:4005C000ADF80410002819DB0D4BB3F90230984214DA0BB2002B11DB0949B1F904108B420CDA144601A90DF10600FFF791FE2246BDF90410BDF90600FFF7ACFD02B010BDF8
:400600007085FF1F2DE9F04F85B005460E461746BDF838200292B84201D0994207D1029A00923A4631462846FFF7A6FE52E0C1EB0308B8F1000FB8BFC8F10008C0EB070941
:40064000B9F1000FB8BFC9F10009C84504DD3A461F4613460D460646BD4205DD32461E4613462A463D461746C5EB070B1FFA8BFB0FFA8BF4C6EB030ABAF1000FB8BFCAF1C3
:40068000000A04EBD47464109E4202DA012303931EE04FF0FF3303931AE0C84505DD029A29463046FFF788FF04E0029A31462846FFF782FFCAEB0404A3B21CB2002C05DA5C
:4006C000039A164436B20BEB030424B201352DB2BD42E2DD05B0BDE8F08F00BF2DE9F04383B005460E4617469846BDF8289093420FDC0C461EE006EB0803013BCDF800907D
:400700001BB2224631462046FFF77CFF013424B200E00446EB199C42EDDB0FE0EA19013ACDF80090234612B221462846FFF76AFF013424B206EB08039C42EFDB03B0BDE86D
:40074000F08300BF2DE9F04F85B0BDF838B09DF83C60364CB4F90240844263DD334CB4F904408C425EDD06EB46056C000444012C58D401EBC604012C54D4984603928A4668
:40078000814600274CE0052F08D0039B03EB83033B44274A134493F8245000E0002500243AE015F0010F19D0012E09D104EB0A0107EB0900424609B200B2FFF7FDFE28E08E
:4007C000B0B232B204FB00A107FB0090CDF80080134609B200B2FFF781FF1AE0D84518D0012E09D104EB0A0107EB09005A4609B200B2FFF7E1FE0CE0B0B232B204FB00A14F
:4008000007FB0090CDF800B0134609B200B2FFF765FF6D08013464B2072CC2DD01377FB2052FB0DD05B0BDE8F08F00BF7085FF1F3C2700000A2808D11A4B997A1A8902EBB4
:40084000C1021A810022DA8070470D28FCD030B583B00246134CE389B4F90810B4F90600A57A0195A5890095FFF76CFFA27A91B201EB41035800E38803441BB2E3800A484F
:40088000007868B1A2EB82025000B4F902201044834205DD228902EBC10121810022E28003B030BD7085FF1FAE85FF1F70B5064601F024FB0546002403E0305DFFF7BAFFE9
:4008C0000134AC42F9D370BD08B5FFF7EFFF0A20FFF7B0FF08BD00BFFEE700BFF0B40022174611E050F82760F3B226F0FF0608E001EB420511F812406D78A5550132013BDD
:40090000DBB2002BF4D10137122FEBD9F0BC70470A4B1B78DBB203F00701094A11701B09013213700123A2F24272137002F6D31213704422034B1A70704700BFCF01004960
:400940006E5800407658004008B50A46002101F0A8FA08BD08B501F099FA08BD38B500242C4B1C80502202331A7004222A492B48FFF7F0FF02222A4B1A7008224FF04023A2
:400980001A70032103F500731970264B1B78DBB225490B70254B1A8041F25122023B1A8019250CE0224B1B7803F0010343EA440404F003044FF4F07000F066FF013D0DB10F
:4009C000032CEFD115B90320FFF786FF194B4FF480721A8007221A70002217490A704820023108701A700222033B1A7004220A331A70124A137843F001031370013A1378DD
:400A000043F001031370013A137843F08003137038BD00BF80400040F8000048004100400043004008010049A146004022420040254200400440004006400040A243004012
:400A4000012807D8044B53F820201844017A13780B431370704700BF5C2C0000012808D8044B53F820201844017A137823EA0103137070475C2C000038B572B62C4A137835
:400A800043F00403137000240BE02A4863001A19510001440A46098AD068FFF755FF0134E4B2082CF1D924494FF09040FFF716FF0A25224B1D70224A137843F0020313703C
:400AC0001032137843F0020313701E4C237843F040032370A2F58632513A137843F0100313702A4618491948FFF734FF082218491848FFF72FFF2A4617491848FFF72AFF79
:400B0000174A137843F008031370164D61232B70FFF724FF81232B700122134B1A70FFF7F7FE0E2221461148FFF714FF38BD00BFE84600405C2C00004C00004883580040E6
:400B400003500140A0430040D8000048C0510040E400004812510040EC00004820510040224300400048004004000840B043004008B501F05FF903680C2B00D1FEE7FEE7AA
:400B800008B5094B1A681044084BC31A802B02DC054B186005E001F04DF90C2303604FF0FF32104608BD00BFD084FF1FD085FF1F08B5104E104D16E029686B68AC680022E8
:400BC00004E051F8040B43F8040B0432A242F8D1E868002203E0002143F8041B04328242F9D11035013E002EE6D101F029F9FFF749FAFEE701000000F82C000008B5104A22
:400C0000104B1A60104A136843F40073136000230AE0032B03D80D4A52F8231000E00C490C4A42F8231001332F2BF2D90A4B1A780A4B1A70074A0A4B1A60FFF71DFF08BDF5
:400C40000004FA050CED00E014ED00E000000000710B00000080FF1FBC760040C080FF1F08ED00E001BE704710B5044605E0084B186800F009FEA4F50044B4F5004FF6D821
:400C8000034B586800FB04F000F0FEFD10BD00BFD484FF1F08B5034B1B7A00FB03F000F0F3FD08BDD484FF1F70B504460E46074B1D681F2802D90020FFF7D4FF04F01F04E5
:400CC000103455F8240045F8246070BD08ED00E038B504460D46072902D90020FFF7C2FF1F2C02D90020FFF7BDFF04F01F0000F1604000F564406D01EDB2057038BD00BFA5
:400D000038B50222114B1A7081220E3B1A70082202331A700F2511331D70002401331C704FF400420A4B1A6007212846FFF7D0FF08492846FFF7B8FF1022074B1A70074BF9
:400D40001C70074B1C70074B1C7038BDD649004080E100E0B50D0000AF85FF1FB085FF1FB285FF1FB385FF1F08B500F095FD064A137843F0040313701032137843F00403A6
:400D8000137000F08DFD08BDA543004008B5074B1B7823B9FFF7B4FF0122044B1A70FFF7E3FF4FF40042024B1A6008BD8085FF1F00E100E038B5A54B1C78A54B1B7813F062
:400DC000400F00F03A81E4B214F0010F00F01D819F4B1B78453B052B00F21481DFE813F006008200120112010600DF0004F0DF0504F00A04082C42D1954B1B78DBB2452B1F
:400E000035D1944B1B7813F0FF0F10D0924B1B681B78DBB2914A137004228C4B1A7001228F4B1A7046228A4B1A702C46EDE08D4B1B7813F0020F0DD08B4A137843F00A035B
:400E400013706022824B1A704FF40042874B1A602C46DAE0864A137843F0100313701022844B1A700422023B1A702C46CDE00022764B1A704A22764B1A702C46C5E00A2CED
:400E80002BD1794A137843F0A0031370754B1B7813F0020F14D06E4B1B7813F0080F01D0092300E00A23704A11780B4313706022674B1A704FF400426C4B1A602C46A4E056
:400EC0006B4A137843F0100313701022694B1A700422023B1A702C4697E00020FFF7C2FE2C4692E014F0020F36D15D4B1A78D2B2584B1B78DBB29A4210D2594A1378DBB2D3
:400F000055490968CB5CDBB254490B7004214F4B197013780133DBB2137076E0514B1B7813F0020F0CD0504A137843F00A0313706022474B1A704FF400424C4B1A6064E0EA
:400F40004B4A137843F0100313701022494B1A700422023B1A7058E0424B1B7813F0020F0CD0414A137843F09A0313706022384B1A704FF400423D4B1A6046E03C4A13784D
:400F800043F01003137010223A4B1A700422023B1A70354A137843F09003137035E0364A1378DBB2354908682C490978C9B2C15413780133DBB213701278D2B2304B1B78DB
:400FC000DBB29A4203D21022204B1A701DE0254B1B7813F0020F0CD0234A137843F00903137060221A4B1A704FF400421F4B1A600BE01F4A137843F0100313700022134BE0
:401000001A7002E00020FFF72DFE14F0200F1CD00F4B1B7813F0080F01D0012300E00223114A11780B431370114A137803F0EF0313701022064B1A7038BD054B1B7813F0F8
:40104000100F02D11022024B1A7038BDD7490040AF85FF1FB885FF1FBC85FF1FD8490040B385FF1FB185FF1FB085FF1F80E100E0D6490040D9490040B285FF1FB485FF1F08
:40108000C085FF1F1A4B1B78DBB2102B29D1194B1B7813F0080F26D14FF40042164B1A604000C0B229B140F001004922104B1A7002E045220E4B1A70104B18700122013338
:4010C0001A700F4B1B7813F0010FFAD00C4B1B7803F00A030A2B08D11022054B1A700320704702207047012070470020704700BFAF85FF1FD949004080E100E0D849004021
:40110000D74900400A4B1B7813F0040F0ED01023074A13700421023A1170064A1370064B1B7813F0210FFAD00020704702207047D9490040AF85FF1FD7490040114B1B7823
:4011400013F0040F1BD0104B18700422013B1A7046220E4B1A700E4B1B7813F0010FFAD00B4B1B7813F0020F04D16022074B1A70002070476022054B1A700320704702202C
:40118000704700BFD9490040D8490040AF85FF1FD749004010B59DF80840012C51D1013809282ED8DFE800F0052D2D052D2D0F192D230F2B03D92548007840B222E024489B
:4011C000007840B21EE00F2B03D92248007840B218E02148007840B214E00F2B03D91F48007840B20EE01E48007840B20AE00F2B03D91C48007840B204E01B48007840B2BA
:4012000000E0002001EB401101FB02F1C90B8AB20D2B0BD8C3F10E0289B211418AB2611E124800EB810101338B7005E0631E0F4901EB83030F219970013C0C4B23F82420F9
:4012400010BD0020FFF70EFD10BD00BF180100491C010049190100491D0100491A0100491E0100491B0100491F0100498485FF1FF8B5074600F010FB06460D4D2B7843F030
:4012800003032B700B4C237843F0030323700A4B1F700320FFF7FEFC2B7803F0FC032B70237803F0FC032370304600F0F9FAF8BDF8460040F9460040925800400022314BB5
:4012C0001A7101285DD170B578222F4B1A70002402331C70092201331A707F232B4A13700132147001321370294B1C7001331C7001331C7001250A331D70502203F5276310
:401300001A700A2201331A702C2201331A7001331C70442203331A70482201331A7001331D70022602331E70122201331A70282201331A70EB2201331A705220FFF798FFAF
:401340005822144B1A7001331C70052205331A7001331E7001331C7001331C70204600F07DF90D4A0D4B1A602946284600F09AF92946072000F01AFA09491D20FFF794FC1B
:4013800070BD70478485FF1F004E0040044E0040084E00409458004033330300C485FF1F39160000F0B583B0274D01272F70274E00247471102000F063F9102000F0E4F917
:4013C00007211D20FFF784FC0422214B1A7001331C7007331C701F4A137843F0180313701D4B1C7003F2F5231C7001331C700A22A3F209331A7001331C7002331C705B22D9
:4014000005331A705E2201331A7004331C701423124A137000974FF4004248F6F0510220FFF7B8FE2B78013B06EB83039A780C4B1A702B78013B36F823200A4B1A80287842
:40144000FFF73CFF03B0F0BDE484FF1F8485FF1F96580040075B004093580040014E00400E4E00400C4E004070B500F015FA06462A4B1B782A4B1A7842F001021A701A789E
:4014800042F010021A7010331A7842F001021A701A7842F010021A70224D2B7843F002032B70214C237843F0020323701F4A137843F0030313700320FFF7ECFB2B7803F06C
:4014C000FD032B70237803F0FD032370184A137843F0060313707A22164B1A70164A137843F0010313701032137843F0010313700F3A137843F0010313701032137843F043
:40150000010313704FF000530C4A1360A2F5C0721360304600F0C4F970BD00BFE484FF1FAA430040F8460040F9460040915800407758004082580040A143004080E200E016
:4015400008B5084B9B794BB9064BDB7913F0FF0F01D1FFF727FF0122024B9A71FFF784FF08BD00BF8485FF1F024A137843F0010313707047004E0040094B1B7913F0FF0F31
:4015800003D0074B5B79DBB203E0064B1B7803F00103012B01D00028EED01846704700BF8485FF1F014E0040154B1B7803F00303012B07D8134B1888023B1B889BB243EA2B
:4015C000004013E0022B0AD10E4B1888023B1B7843EA00430C4A107843EA002006E00B4B188883B2074A108843EA0040084B1B7913F0FF0F02D00022054B5A71704700BF68
:40160000144E0040124E0040114E0040104E00408485FF1F064B9B68C01A4FF47A7303FB00F0044B1B6890FBF3F000B2704700BF8485FF1FC485FF1F704700BF10B5002463
:4016400004E02046FFF70AFA0134E4B2012CF8D9FF22014B1A7010BDE584FF1F10B50446FFF7ECFF2046FFF7EBF9014B1C7010BDE584FF1F014B188880B2704780400040E1
:40168000034B1A7800F0F80010431870704700BF82400040024B187800F00700704700BF8240004070B505460E46FFF7F3FF0446FFF7E0FFA84256D02B4B1B7803F00102E9
:4016C00094B900B185B938B9284B1D80284A137803F0BF03137070BD254A137843F040031370224B1D8070BD22B3002321490B7001240F310C7004310B700C390B7803F0F8
:401700007F030B701A4B1B7813F0080F00D08DB9194B18800721013B1970164B1B7813F0010FFAD110490B7803F0FE030B700021104B19700C4B1B7813F0010F0DD00E4B46
:401740001D800EB1032200E001220A4B1A70094B1B7813F0010FFAD170BD044B1D8002490B7813430B7070BDA243004080400040824000400140004002400040014B188846
:4017800080B2704700410040034B1A7800F0F80010431870704700BF02410040024B187800F00700704700BF0241004070B505460E46FFF7F3FF0446FFF7E0FFA84256D07B
:4017C0002B4B1B7803F0010294B900B185B938B9284B1D80284A137803F0BF03137070BD254A137843F040031370224B1D8070BD22B3002321490B70012413310C70043922
:401800000B7008390B7803F07F030B701A4B1B7813F0080F00D08DB9194B18800721013B1970164B1B7813F0010FFAD110490B7803F0FE030B700021104B19700C4B1B785C
:4018400013F0010F0DD00E4B1D800EB1032200E001220A4B1A70094B1B7813F0010FFAD170BD044B1D8002490B7813430B7070BDA143004000410040024100400140004069
:4018800002400040000000000230800803D000BF01380046FCD17047EFF3108072B6704780F31088704700BF81F0004102E000BF83F0004330B54FEA41044FEA430594EA1A
:4018C000050F08BF90EA020F1FBF54EA000C55EA020C7FEA645C7FEA655C00F0E2804FEA5454D4EB5555B8BF6D420CDD2C4480EA020281EA030382EA000083EA010180EA7B
:40190000020281EA0303362D88BF30BD11F0004F4FEA01314FF4801C4CEA113102D0404261EB410113F0004F4FEA03334CEA133302D0524263EB430394EA050F00F0A780C7
:40194000A4F10104D5F1200E0DDB02FA0EFC22FA05F2801841F1000103FA0EF2801843FA05F359410EE0A5F120050EF1200E012A03FA0EFC28BF4CF0020C43FA05F3C01863
:4019800051EBE37101F0004507D54FF0000EDCF1000C7EEB00006EEB0101B1F5801F1BD3B1F5001F0CD349085FEA30004FEA3C0C04F101044FEA445212F5800F80F09A8090
:4019C000BCF1004F08BF5FEA500C50F1000041EB045141EA050130BD5FEA4C0C404141EB010111F4801FA4F10104E9D191F0000F04BF01460020B1FA81F308BF2033A3F1D0
:401A00000B03B3F120020CDA0C3208DD02F1140CC2F10C0201FA0CF021FA02F10CE002F11402D8BFC2F1200C01FA02F120FA0CFCDCBF41EA0C019040E41AA2BF01EB045132
:401A4000294330BD6FEA04041F3C1CDA0C340EDC04F11404C4F1200220FA04F001FA02F340EA030021FA04F345EA030130BDC4F10C04C4F1200220FA02F001FA04F340EA2C
:401A80000300294630BD21FA04F0294630BD94F0000F83F4801306BF81F480110134013D4EE77FEA645C18BF7FEA655C29D094EA050F08BF90EA020F05D054EA000C04BF63
:401AC0001946104630BD91EA030F1EBF0021002030BD5FEA545C05D14000494128BF41F0004130BD14F580043CBF01F5801130BD01F0004545F0FE4141F470014FF0000042
:401B000030BD7FEA645C1ABF194610467FEA655C1CBF0B46024650EA013406BF52EA033591EA030F41F4002130BD00BF90F0000F04BF0021704730B54FF4806404F13204CB
:401B40004FF000054FF0000150E700BF90F0000F04BF0021704730B54FF4806404F1320410F0004548BF40424FF000013EE700BF42004FEAE2014FEA31014FEA02701FBF46
:401B800012F07F4393F07F4F81F06051704792F0000F14BF93F07F4F704730B54FF4607401F0004521F0004120E700BF50EA010208BF704730B54FF000050AE050EA010276
:401BC00008BF704730B511F0004502D5404261EB41014FF4806404F132045FEA915C3FF4DCAE4FF003025FEADC0C18BF03325FEADC0C18BF033202EBDC02C2F1200300FAB7
:401C000003FC20FA02F001FA03FE40EA0E0021FA02F11444C1E600BF80F0004002E000BF81F0004142001FBF5FEA410392EA030F7FEA226C7FEA236C6AD04FEA1262D2EBC8
:401C40001363C1BFD218414048404140B8BF5B42192B88BF704710F0004F40F4000020F07F4018BF404211F0004F41F4000121F07F4118BF494292EA030F3FD0A2F101020D
:401C800041FA03FC10EB0C00C3F1200301FA03F100F0004302D5494260EB4000B0F5000F13D3B0F1807F06D340084FEA310102F10102FE2A51D2B1F1004F40EBC25008BF01
:401CC00020F0010040EA03007047490040EB000010F4000FA2F10102EDD1B0FA80FCACF1080CB2EB0C0200FA0CF0AABF00EBC25052421843BCBFD0401843704792F0000F19
:401D000081F4000106BF80F400000132013BB5E74FEA41037FEA226C18BF7FEA236C21D092EA030F04D092F0000F08BF0846704790EA010F1CBF0020704712F07F4F04D115
:401D4000400028BF40F00040704712F100723CBF00F50000704700F0004343F0FE4040F4000070477FEA226216BF08467FEA23630146420206BF5FEA412390EA010F40F4B0
:401D8000800070474FF0000304E000BF10F0004348BF40425FEA000C08BF704743F0964301464FF000001CE050EA010208BF70474FF000030AE000BF50EA010208BF704779
:401DC00011F0004302D5404261EB41015FEA010C02BF84460146002043F0B64308BFA3F18053A3F50003BCFA8CF2083AA3EBC25310DB01FA02FC634400FA02FCC2F120020A
:401E0000BCF1004F20FA02F243EB020008BF20F00100704702F1200201FA02FCC2F1200250EA4C0021FA02F243EB020008BF20EADC707047014B1868704700BF4885FF1F30
:401E40000E4B70B51E460E4C0025E41AA410A54204D056F8253098470135F8E700F03AFF084B094C1E46E41AA4100025A54204D056F8253098470135F8E770BDE02C000066
:401E8000E02C0000E02C0000E82C000010B5431E0A44914204D011F8014B03F8014FF8E710BD03460244934202D003F8011BFAE7704700000EB400B54FF402719CB0ADF88C
:401EC00014106FF00041049107914FF6FF711DAB02900690084853F8042BADF81610006802A9019300F06CF8029B00221A701CB05DF804EB03B070474885FF1F034613F8BA
:401F0000012B002AFBD1181A013870472DE9F0478E6882469E420C46914698463ED88A8912F4906F3AD02568096902236F1A656905EB450595FBF3F57B1C43449D4238BF12
:401F40001D4653050FD5294600F040FB064698B13A462169FFF79AFFA38923F4906343F08003A38113E02A4600F08EFB064670B92169504600F0DEFA0C23CAF80030A38964
:401F80004FF0FF3043F04003A381BDE8F08726613E44266046466561ED1BA560464528BF464649463246206800F0A8FAA36800209B1BA36023681E442660BDE8F08700007D
:401FC0002DE9F04F9DB003938B8980461C060D4616460DD50B695BB9402100F0F7FA2860286118B90C23C8F80030CDE040236B610023099320238DF82930DFF89CB130231E
:402000008DF82A3037463C4614F8013B1BB9B7EB060910D003E0252BF9D02746F3E74B46324629464046FFF771FF013000F0A780099B4B4409933B78002B00F0A080002346
:402040004FF0FF3204930793059206938DF853301A930126052221784E4800F041FA671C049B38B14B4A3C46801A06FA00F018430490EFE7D90644BF20228DF853201A0784
:4020800044BF2B228DF8532022782A2A03D0079A00210A200BE0039A111D12680391002A10DA524243F00200079204900BE027463B780134303B092B03D800FB0232012152
:4020C000F5E701B107923B782E2B1ED17B782A2B0AD1039B02371A1D1B680392002BB8BF4FF0FF33059310E0002319460593781C0A2407463A780130303A092A03D804FB57
:4021000001210123F5E703B1059103223978224800F0E6F940B14023CBEB000003FA00F0049B013718430490397806221B487E1C8DF8281000F0D4F988B1194B33B9039BF0
:40214000073323F007030833039314E003AB00932A46144B04A94046AFF3008007E003AB00932A460F4B04A9404600F093F8B0F1FF3F824603D0099B5344099342E7AB8990
:402180005B0601D4099801E04FF0FF301DB0BDE8F08F00BFA02C0000A62C0000AA2C0000000000000D1F00002DE9F04791461F460A698B6806469342B8BF1346C9F80030D8
:4021C00091F843200C46DDF8208012B10133C9F800302368990642BFD9F800300233C9F80030256815F0060510D104F1190A07E00123524639463046C04701301AD001356C
:40220000E368D9F800209B1A9D42F1DB94F843302268003318BF012392060FD5E118302081F843005A1C94F845102244023382F8431003E04FF0FF30BDE8F08704F1430264
:4022400039463046C0470130F4D02268D9F80050E36802F00602042A08BF5D1B2269A3680CBF25EAE57500259342C4BF9B1AED184FF000091A344D4509D001232246394603
:402280003046C0470130D5D009F10109F3E70020BDE8F0872DE9F04317460A7E85B06E2A984606460C460C9B01F1430E00F0AE8011D8632A22D009D8002A00F0BB80582A12
:4022C00040F0CA8081F84520834955E0642A1ED0692A1CD0C0E0732A00F0B08009D86F2A2ED0702A40F0B8800A6842F020020A603EE0752A24D0782A3AD0ADE01A6801F125
:402300004205111D1960136884F84230A8E021681A6811F0800F02D0111D196008E011F0400F02F10401196002D0B2F9003000E01368002B3CDA2D225B4284F8432037E0D6
:4023400021681A6811F0800F02D0111D196007E011F0400F02F10401196001D0138800E01368227E5C496F2A14BF0A2208221BE078225A4984F845202268186812F0800F1F
:4023800000F104051D6003D1550601D5038800E00368D00744BF42F0200222601BB9226822F0200222601022002084F8430001E049490A226568002DA56008DB206820F0DD
:4023C000040020602BB9002D7DD175460CE0002B79D07546B3FBF2F002FB1033CB5C05F8013D03460028F5D1082A0BD12368DA0708D5236962689A42DEBF302305F8013C08
:4024000005F1FF35C5EB0E0323612EE008681A6810F0800F496903D0101D1860136808E010F0400F02F104001860136801D0198000E0196000232361754616E01A68111D0D
:402440001960156800216268284600F049F808B1401B6060636804E004F1420584F8422001232361002384F84330CDF800803B4603AA21463046FFF797FE013002D14FF067
:40248000FF3026E023692A4639463046C0470130F5D023689B0710D5002504F1190907E001234A4639463046C0470130E7D00135E368039A9B1A9D42F2DBE068039B9842ED
:4024C000B8BF184605E00B7804F1420584F842308AE705B0BDE8F083B12C0000C22C000010B5C9B202449042034605D01C7801308C42F8D1184610BD002010BD884210B5F3
:4025000001EB020301D8421E0BE09842FBD28118D21AD34204D013F8014D01F8014DF8E710BD994204D011F8014B02F8014FF8E710BD000038B50546002944D051F8043C2D
:402540000C1F002BB8BFE41800F0D4F81E4A1368114613B96360146030E0A3420DD92268A018834201BF18685B681218226063600C6023E0A24203D813465A68002AF9D108
:4025800018681918A1420BD12168014458188242196013D110685268014419605A600DE002D90C232B6009E021686018824201BF106852680918216062605C602846BDE84D
:4025C000384000F098B838BD9485FF1F70B5CD1C25F0030508350C2D38BF0C25002D064601DBA94202D90C23336046E000F082F8234B1C681A462146A1B10B685B1B0ED4EB
:402600000B2B03D90B60CC18CD501EE08C420BBF63684B681360636018BF0C4615E00C464968E9E7174C23681BB9304600F052F820602946304600F04DF8431C18D0C41CAE
:4026400024F00304A0420DD12560304600F053F804F10B00231D20F00700C31A0ED05A42E25070BD211A304600F034F80130EBD10C233360304600F03EF8002070BD00BF18
:402680009485FF1F9085FF1FF8B5074615460E4621B91146BDE8F840FFF798BF1AB9FFF749FF2846F8BD00F027F885420ED929463846FFF78BFF044650B131462A46FFF726
:4026C000E5FB31463846FFF735FF01E03046F8BD2046F8BD38B5064C0023054608462360FEF74EFA431C02D1236803B12B6038BDC885FF1F7047704751F8040C0028BEBF31
:40270000091851F8043CC0180438704700000000252E33660000000053495354454D415320454D42454249444F53204900000000566F6C74203D20006D5600000021007F37
:402740002200070000AED580A83FD300408D142000A1C8DA1281CFD9F1DB40A4A6AF000000000000003E5B4F5B3E3E6B4F6B3E1C3E7C3E1C183C7E3C181C577D571C1C5E9A
:402780007F5E1C00183C1800FFE7C3E7FF0018241800FFE7DBE7FF30483A060E2629792926407F050507407F05253F5A3CE73C5A7F3E1C1C08081C1C3E7F14227F22145FFE
:4027C0005F005F5F06097F017F006689956A606060606094A2FFA29408047E040810207E201008082A1C08081C2A08081E101010100C1E0C1E0C30383E3830060E3E0E0613
:40280000000000000000005F00000007000700147F147F14242A7F2A12231308646236495620500008070300001C2241000041221C002A1C7F1C2A08083E08080080703006
:40284000000808080808000060600020100804023E5149453E00427F400072494949462141494D331814127F1027454545393C4A4949314121110907364949493646494931
:40288000291E0000140000004034000000081422411414141414004122140802015909063E415D594E7C1211127C7F494949363E414141227F4141413E7F494949417F0976
:4028C0000909013E414151737F0808087F00417F41002040413F017F081422417F404040407F021C027F7F0408107F3E4141413E7F090909063E4151215E7F091929462630
:402900004949493203017F01033F4040403F1F2040201F3F4038403F631408146303047804036159494D43007F4141410204081020004141417F04020102044040404040B3
:40294000000307080020545478407F284444383844444428384444287F385454541800087E090218A4A49C787F0804047800447D40002040403D007F1028440000417F409A
:40298000007C047804787C080404783844444438FC1824241818242418FC7C08040408485454542404043F44243C4040207C1C2040201C3C4030403C44281028444C909044
:4029C000907C4464544C4400083641000000770000004136080002010204023C2623263C1EA1A161123A4040207A3854545559215555794122545478422155547840205424
:402A00005579400C1E5272123955555559395454545939555454580000457C410002457D420001457C407D1211127DF0282528F07C545545002054547C547C0A097F4932C2
:402A4000494949323A4444443A324A4848303A4141217A3A42402078009DA0A07D3D4242423D3D4040403D3C24FF2424487E4943662B2FFC2F2BFF0929F620C0887E090326
:402A800020545479410000447D413048484A32384040227A007A0A0A727D0D19317D2629292F28262929292630484D4020380808080808080808382F10C8ACBA2F1028343E
:402AC000FA00007B000008142A142222142A1408AA005500AAAA55AA55AA000000FF00101010FF00141414FF001010FF00FF1010F010F0141414FC001414F700FF0000FF2C
:402B000000FF1414F404FC141417101F10101F101F1414141F00101010F0000000001F101010101F10101010F010000000FF101010101010101010FF10000000FF140000B4
:402B4000FF00FF00001F10170000FC04F414141710171414F404F40000FF00F714141414141414F700F7141414171410101F101F141414F4141010F010F000001F101F00BC
:402B800000001F14000000FC140000F010F01010FF10FF141414FF141010101F00000000F010FFFFFFFFFFF0F0F0F0F0FFFFFF0000000000FFFF0F0F0F0F0F3844443844E9
:402BC000FC4A4A4A347E02020606027E027E0263554941633844443C04407E201E2006027E020299A5E7A5991C2A492A1C4C7201724C304A4D4D303048784830BC625A46CD
:402C00003D3E494949007E0101017E2A2A2A2A2A44445F444440514A444040444A51400000FF0103E080FF000008086B6B083612362436060F090F060000181800000010A5
:402C400010003040FF0101001F01011E00191D1712003C3C3C3C000000000000035B00402443004040000000C84900401900005100401000305100404000F0510040100023
:402C800000000140001000140140000800400140000A004C014000020050014020004300232D302B2000686C4C00656667454647003031323334353637383941424344450D
:402CC0004600303132333435363738396162636465660000F8B500BFF8BC08BC9E4670474D000000FD0B0000F8B500BFF8BC08BC9E46704729000000082D0000C880FF1F15
:402D00008804000080000000000000004000000000000000000000000000000000000000000000000000000000000000000000000000000000000000000000000000000047
:402D40000000000000000000000000000000000000000000000000000000000000000000000000000000000000000000000000000000000000000000000000000000000053
:402D80000000000000000000000000000000000000000000000000000000000000000000000000000000000000000000000000000000000000000000000000000000000013
:402DC00000000000000000000000000000000000000000000000000000000000000000000000000000000000000000000000000000000000000000000000000000000000D3
:402E00000000000000000000000000000000000000000000000000000000000000000000000000000000000000000000000000000000000000000000000000000000000092
:402E40000000000000000000000000000000000000000000000000000000000000000000000000000000000000000000000000000000000000000000000000000000000052
:402E80000000000000000000000000000000000000000000000000000000000000000000000000000000000000000000000000000000000000000000000000000000000012
:402EC00000000000000000000000000000000000000000000000000000000000000000000000000000000000000000000000000000000000000000000000000000000000D2
:402F00000000000000000000000000000000000000000000000000000000000000000000000000000000000000000000000000000000000000000000000000000000000091
:402F40000000000000000000000000000000000000000000000000000000000000000000000000000000000000000000000000000000000000000000000000000000000051
:402F80000000000000000000000000000000000000000000000000000000000000000000000000000000000000000000000000000000000000000000000000000000000011
:402FC00000000000000000000000000000000000000000000000000000000000000000000000000000000000000000000000000000000000000000000000000000000000D1
:403000000000000000000000000000000000000000000000000000000000000000000000000000000000000000000000000000000000000000000000000000000000000090
:403040000000000000000000000000000000000000000000000000000000000000000000000000000000000000000000000000000000000000000000000000000000000050
:403080000000000000000000000000000000000000000000000000000000000000000000000000000000000000000000000000000000000000000000000000000000000010
:4030C00000000000000000000000000000000000000000000000000000000000000000000000000000000000000000000000000000000000000000000000000000000000D0
:4031000000000000000000000000000000000000D085FF1F0000E02EC05D00001800000000366E0101FF000000000000000000000000000000000000000000000000000034
:4031400000000000000000009E2C00000000000000000000000000000000000000000000000000000000000000000000000000000000000000000000000000000000000085
:403180000000000000000000E884FF1F0000000000000000000000000000000000000000000000000000000000000000000000000000000000000000000000000000000085
:4031C00000000000000000000000000000000000000000000000000000000000000000000000000000000000000000000000000000000000000000000000000000000000CF
:40320000000000000000000000000000000000000000000000000000000000000000000000000000000000000000000000000000000000000000000000000000000000008E
:40324000000000000000000000000000000000000000000000000000000000000000000000000000000000000000000000000000000000000000000000000000000000004E
:40328000000000000000000000000000000000000000000000000000000000000000000000000000000000000000000000000000000000000000000000000000000000000E
:020000040003F7
:0200000480007A
:400000000252004001090140040A0140010B0140041501400117014001190140041B0140024201400143014002440140014501400346014003470140054801401149014081
:40004000094C0140074D01400151014060026403B502B802BE01D804DF011D02E008E401EA05EC10E204E204E008E401EA05EC103E10CE2096107C01DE01940145089401FD
:40008000D001A508B401EC08251082209610C820E2201220164072207710822086409A209B10AA10AB10B510C430DC80DE20E010E480EAA01080132017087B107F408080B2
:4000C000A508C40EDE03831087409780A710AB28B508EC0803C00000030000000300030000000000000B0B00000000000100000100000000010000000700180100000000EF
:4001000000000000000000000000000000000000000000000000000000000000000000000000000000000000000000000000000000000000000000000000000000000000BF
:40014000000000000000000000000000000000000000000000000000000000000000000000000000000000000000000000000000000000000000000000000000000000007F
:40018000000000000000000000000000000000000000000000000000000000000000000000000000000000000000000000000000000000000000000000000000000000003F
:4001C00000000000000000000000000000000000000000000000000000000000000000000000000000000000000000000000000000000000000000000000000000000000FF
:0200000490006A
:0400000000004005B7
:0200000490105A
:04000000BC90ACAF55
:0200000490303A
:02000000185294
:0200000490402A
:4000000000000000000000000000000000000000000000000000000000000000000000000000000000000000000000000000000000000000000000000000000000000000C0
:400040000000000000000000000000000000000000000000000000000000000000000000000000000000000000000000000000000000000000000000000000000000000080
:400080000000000000000000000000000000000000000000000000000000000000000000000000000000000000000000000000000000000000000000000000000000000040
:4000C0000000000000000000000000000000000000000000000000000000000000000000000000000000000000000000000000000000000000000000000000000000000000
:0200000490501A
:0C00000000012E16106900012E2628BBFE
:00000001FF